{
  "_format": "hh-sol-artifact-1",
  "contractName": "ProofOfDelivery",
  "sourceName": "contracts/ProofOfDelivery.sol",
  "abi": [
    {
      "inputs": [],
      "stateMutability": "nonpayable",
      "type": "constructor"
    },
    {
      "anonymous": false,
      "inputs": [
        {
          "indexed": false,
          "internalType": "uint256",
          "name": "deliveryId",
          "type": "uint256"
        }
      ],
      "name": "DeliveryConfirmed",
      "type": "event"
    },
    {
      "anonymous": false,
      "inputs": [
        {
          "indexed": false,
          "internalType": "uint256",
          "name": "deliveryId",
          "type": "uint256"
        },
        {
          "indexed": false,
          "internalType": "address",
          "name": "sender",
          "type": "address"
        },
        {
          "indexed": false,
          "internalType": "address",
          "name": "recipient",
          "type": "address"
        },
        {
          "indexed": false,
          "internalType": "address",
          "name": "courier",
          "type": "address"
        }
      ],
      "name": "DeliveryCreated",
      "type": "event"
    },
    {
      "anonymous": false,
      "inputs": [
        {
          "indexed": false,
          "internalType": "uint256",
          "name": "deliveryId",
          "type": "uint256"
        }
      ],
      "name": "DisputeRaised",
      "type": "event"
    },
    {
      "anonymous": false,
      "inputs": [
        {
          "indexed": false,
          "internalType": "uint256",
          "name": "deliveryId",
          "type": "uint256"
        },
        {
          "indexed": false,
          "internalType": "bool",
          "name": "resolvedToCourier",
          "type": "bool"
        }
      ],
      "name": "DisputeResolved",
      "type": "event"
    },
    {
      "anonymous": false,
      "inputs": [
        {
          "indexed": false,
          "internalType": "uint256",
          "name": "deliveryId",
          "type": "uint256"
        },
        {
          "indexed": false,
          "internalType": "enum ProofOfDelivery.Status",
          "name": "status",
          "type": "uint8"
        }
      ],
      "name": "StatusUpdated",
      "type": "event"
    },
    {
      "inputs": [],
      "name": "admin",
      "outputs": [
        {
          "internalType": "address",
          "name": "",
          "type": "address"
        }
      ],
      "stateMutability": "view",
      "type": "function"
    },
    {
      "inputs": [
        {
          "internalType": "uint256",
          "name": "deliveryId",
          "type": "uint256"
        }
      ],
      "name": "confirmDelivery",
      "outputs": [],
      "stateMutability": "nonpayable",
      "type": "function"
    },
    {
      "inputs": [
        {
          "internalType": "address",
          "name": "_recipient",
          "type": "address"
        },
        {
          "internalType": "address",
          "name": "_courier",
          "type": "address"
        }
      ],
      "name": "createDelivery",
      "outputs": [
        {
          "internalType": "uint256",
          "name": "",
          "type": "uint256"
        }
      ],
      "stateMutability": "payable",
      "type": "function"
    },
    {
      "inputs": [
        {
          "internalType": "uint256",
          "name": "",
          "type": "uint256"
        }
      ],
      "name": "deliveries",
      "outputs": [
        {
          "internalType": "address",
          "name": "sender",
          "type": "address"
        },
        {
          "internalType": "address",
          "name": "recipient",
          "type": "address"
        },
        {
          "internalType": "address",
          "name": "courier",
          "type": "address"
        },
        {
          "internalType": "uint256",
          "name": "amount",
          "type": "uint256"
        },
        {
          "internalType": "enum ProofOfDelivery.Status",
          "name": "status",
          "type": "uint8"
        },
        {
          "internalType": "bool",
          "name": "isCompleted",
          "type": "bool"
        }
      ],
      "stateMutability": "view",
      "type": "function"
    },
    {
      "inputs": [],
      "name": "deliveryCount",
      "outputs": [
        {
          "internalType": "uint256",
          "name": "",
          "type": "uint256"
        }
      ],
      "stateMutability": "view",
      "type": "function"
    },
    {
      "inputs": [
        {
          "internalType": "uint256",
          "name": "deliveryId",
          "type": "uint256"
        }
      ],
      "name": "raiseDispute",
      "outputs": [],
      "stateMutability": "nonpayable",
      "type": "function"
    },
    {
      "inputs": [
        {
          "internalType": "uint256",
          "name": "deliveryId",
          "type": "uint256"
        },
        {
          "internalType": "bool",
          "name": "resolvedToCourier",
          "type": "bool"
        }
      ],
      "name": "resolveDispute",
      "outputs": [],
      "stateMutability": "nonpayable",
      "type": "function"
    },
    {
      "inputs": [
        {
          "internalType": "uint256",
          "name": "deliveryId",
          "type": "uint256"
        },
        {
          "internalType": "enum ProofOfDelivery.Status",
          "name": "_status",
          "type": "uint8"
        }
      ],
      "name": "updateStatus",
      "outputs": [],
      "stateMutability": "nonpayable",
      "type": "function"
    }
  ],
  "bytecode": "0x608060405234801561001057600080fd5b5033600160006101000a81548173ffffffffffffffffffffffffffffffffffffffff021916908373ffffffffffffffffffffffffffffffffffffffff160217905550611663806100616000396000f3fe60806040526004361061007b5760003560e01c8063a9e4a3241161004e578063a9e4a32414610126578063f7225de214610168578063f851a44014610198578063fd84cb97146101c35761007b565b806334b25ee2146100805780633a1b3d31146100a95780635b77b6a6146100d2578063a5c1674e146100fd575b600080fd5b34801561008c57600080fd5b506100a760048036038101906100a29190610f85565b6101ec565b005b3480156100b557600080fd5b506100d060048036038101906100cb9190610fc1565b61049a565b005b3480156100de57600080fd5b506100e7610624565b6040516100f491906113ed565b60405180910390f35b34801561010957600080fd5b50610124600480360381019061011f9190610f5c565b61062a565b005b34801561013257600080fd5b5061014d60048036038101906101489190610f5c565b610830565b60405161015f969594939291906112ac565b60405180910390f35b610182600480360381019061017d9190610f20565b6108e6565b60405161018f91906113ed565b60405180910390f35b3480156101a457600080fd5b506101ad610ba3565b6040516101ba9190611291565b60405180910390f35b3480156101cf57600080fd5b506101ea60048036038101906101e59190610f5c565b610bc9565b005b600160009054906101000a900473ffffffffffffffffffffffffffffffffffffffff1673ffffffffffffffffffffffffffffffffffffffff163373ffffffffffffffffffffffffffffffffffffffff161461027c576040517f08c379a00000000000000000000000000000000000000000000000000000000081526004016102739061138d565b60405180910390fd5b600080600084815260200190815260200160002090506003808111156102cb577f4e487b7100000000000000000000000000000000000000000000000000000000600052602160045260246000fd5b8160040160009054906101000a900460ff166003811115610315577f4e487b7100000000000000000000000000000000000000000000000000000000600052602160045260246000fd5b14610355576040517f08c379a000000000000000000000000000000000000000000000000000000000815260040161034c9061130d565b60405180910390fd5b60018160040160016101000a81548160ff02191690831515021790555081156103ec578060020160009054906101000a900473ffffffffffffffffffffffffffffffffffffffff1673ffffffffffffffffffffffffffffffffffffffff166108fc82600301549081150290604051600060405180830381858888f193505050501580156103e6573d6000803e3d6000fd5b5061045c565b8060000160009054906101000a900473ffffffffffffffffffffffffffffffffffffffff1673ffffffffffffffffffffffffffffffffffffffff166108fc82600301549081150290604051600060405180830381858888f1935050505015801561045a573d6000803e3d6000fd5b505b7f5a87909bff68caaaaf0b3fd9c74eeccc928832f879315e5c6fb7a73612f26c0c838360405161048d92919061144d565b60405180910390a1505050565b600080600084815260200190815260200160002090508060020160009054906101000a900473ffffffffffffffffffffffffffffffffffffffff1673ffffffffffffffffffffffffffffffffffffffff163373ffffffffffffffffffffffffffffffffffffffff1614610542576040517f08c379a0000000000000000000000000000000000000000000000000000000008152600401610539906113cd565b60405180910390fd5b8060040160019054906101000a900460ff1615610594576040517f08c379a000000000000000000000000000000000000000000000000000000000815260040161058b906113ad565b60405180910390fd5b818160040160006101000a81548160ff021916908360038111156105e1577f4e487b7100000000000000000000000000000000000000000000000000000000600052602160045260246000fd5b02179055507f2da7b23ca63c1eb969eee5fae4acb98186abecf5358b0354a82a5183ebca6b2a8383604051610617929190611476565b60405180910390a1505050565b60025481565b8060008082815260200190815260200160002060000160009054906101000a900473ffffffffffffffffffffffffffffffffffffffff1673ffffffffffffffffffffffffffffffffffffffff163373ffffffffffffffffffffffffffffffffffffffff1614806106fa575060008082815260200190815260200160002060010160009054906101000a900473ffffffffffffffffffffffffffffffffffffffff1673ffffffffffffffffffffffffffffffffffffffff163373ffffffffffffffffffffffffffffffffffffffff16145b610739576040517f08c379a00000000000000000000000000000000000000000000000000000000081526004016107309061134d565b60405180910390fd5b600080600084815260200190815260200160002090508060040160019054906101000a900460ff16156107a1576040517f08c379a0000000000000000000000000000000000000000000000000000000008152600401610798906113ad565b60405180910390fd5b60038160040160006101000a81548160ff021916908360038111156107ef577f4e487b7100000000000000000000000000000000000000000000000000000000600052602160045260246000fd5b02179055507f04901f83201c8724eadf084436db8aa391820bae6d11f9f78a17edb6f2eef3cf8360405161082391906113ed565b60405180910390a1505050565b60006020528060005260406000206000915090508060000160009054906101000a900473ffffffffffffffffffffffffffffffffffffffff16908060010160009054906101000a900473ffffffffffffffffffffffffffffffffffffffff16908060020160009054906101000a900473ffffffffffffffffffffffffffffffffffffffff16908060030154908060040160009054906101000a900460ff16908060040160019054906101000a900460ff16905086565b600080341161092a576040517f08c379a00000000000000000000000000000000000000000000000000000000081526004016109219061136d565b60405180910390fd5b6002600081548092919061093d9061151d565b91905055506040518060c001604052803373ffffffffffffffffffffffffffffffffffffffff1681526020018473ffffffffffffffffffffffffffffffffffffffff1681526020018373ffffffffffffffffffffffffffffffffffffffff168152602001348152602001600060038111156109e1577f4e487b7100000000000000000000000000000000000000000000000000000000600052602160045260246000fd5b815260200160001515815250600080600254815260200190815260200160002060008201518160000160006101000a81548173ffffffffffffffffffffffffffffffffffffffff021916908373ffffffffffffffffffffffffffffffffffffffff16021790555060208201518160010160006101000a81548173ffffffffffffffffffffffffffffffffffffffff021916908373ffffffffffffffffffffffffffffffffffffffff16021790555060408201518160020160006101000a81548173ffffffffffffffffffffffffffffffffffffffff021916908373ffffffffffffffffffffffffffffffffffffffff1602179055506060820151816003015560808201518160040160006101000a81548160ff02191690836003811115610b31577f4e487b7100000000000000000000000000000000000000000000000000000000600052602160045260246000fd5b021790555060a08201518160040160016101000a81548160ff0219169083151502179055509050507f5b905cfe9135163f8e80d96d87502142572ba899bb19cd62c30f844476a55c16600254338585604051610b909493929190611408565b60405180910390a1600254905092915050565b600160009054906101000a900473ffffffffffffffffffffffffffffffffffffffff1681565b8060008082815260200190815260200160002060000160009054906101000a900473ffffffffffffffffffffffffffffffffffffffff1673ffffffffffffffffffffffffffffffffffffffff163373ffffffffffffffffffffffffffffffffffffffff161480610c99575060008082815260200190815260200160002060010160009054906101000a900473ffffffffffffffffffffffffffffffffffffffff1673ffffffffffffffffffffffffffffffffffffffff163373ffffffffffffffffffffffffffffffffffffffff16145b610cd8576040517f08c379a0000000000000000000000000000000000000000000000000000000008152600401610ccf9061134d565b60405180910390fd5b6000806000848152602001908152602001600020905060026003811115610d28577f4e487b7100000000000000000000000000000000000000000000000000000000600052602160045260246000fd5b8160040160009054906101000a900460ff166003811115610d72577f4e487b7100000000000000000000000000000000000000000000000000000000600052602160045260246000fd5b14610db2576040517f08c379a0000000000000000000000000000000000000000000000000000000008152600401610da99061132d565b60405180910390fd5b8060040160019054906101000a900460ff1615610e04576040517f08c379a0000000000000000000000000000000000000000000000000000000008152600401610dfb906113ad565b60405180910390fd5b60018160040160016101000a81548160ff0219169083151502179055508060020160009054906101000a900473ffffffffffffffffffffffffffffffffffffffff1673ffffffffffffffffffffffffffffffffffffffff166108fc82600301549081150290604051600060405180830381858888f19350505050158015610e8f573d6000803e3d6000fd5b507f375b4005eeae25d0e37d56e1b3841d3bb394b277efa2548de3293f5dcb7a349383604051610ebf91906113ed565b60405180910390a1505050565b600081359050610edb816115d8565b92915050565b600081359050610ef0816115ef565b92915050565b600081359050610f0581611606565b92915050565b600081359050610f1a81611616565b92915050565b60008060408385031215610f3357600080fd5b6000610f4185828601610ecc565b9250506020610f5285828601610ecc565b9150509250929050565b600060208284031215610f6e57600080fd5b6000610f7c84828501610f0b565b91505092915050565b60008060408385031215610f9857600080fd5b6000610fa685828601610f0b565b9250506020610fb785828601610ee1565b9150509250929050565b60008060408385031215610fd457600080fd5b6000610fe285828601610f0b565b9250506020610ff385828601610ef6565b9150509250929050565b611006816114b0565b82525050565b611015816114c2565b82525050565b6110248161150b565b82525050565b6000611037601a8361149f565b91507f44656c6976657279206973206e6f7420696e20646973707574650000000000006000830152602082019050919050565b600061107760208361149f565b91507f44656c6976657279206e6f74206d61726b65642061732064656c6976657265646000830152602082019050919050565b60006110b760308361149f565b91507f4f6e6c792073656e646572206f7220726563697069656e742063616e2070657260008301527f666f726d207468697320616374696f6e000000000000000000000000000000006020830152604082019050919050565b600061111d60218361149f565b91507f5061796d656e74206d7573742062652067726561746572207468616e207a657260008301527f6f000000000000000000000000000000000000000000000000000000000000006020830152604082019050919050565b600061118360228361149f565b91507f4f6e6c792061646d696e2063616e20706572666f726d2074686973206163746960008301527f6f6e0000000000000000000000000000000000000000000000000000000000006020830152604082019050919050565b60006111e9601d8361149f565b91507f44656c697665727920697320616c726561647920636f6d706c657465640000006000830152602082019050919050565b600061122960228361149f565b91507f4f6e6c7920636f75726965722063616e2075706461746520746865207374617460008301527f75730000000000000000000000000000000000000000000000000000000000006020830152604082019050919050565b61128b81611501565b82525050565b60006020820190506112a66000830184610ffd565b92915050565b600060c0820190506112c16000830189610ffd565b6112ce6020830188610ffd565b6112db6040830187610ffd565b6112e86060830186611282565b6112f5608083018561101b565b61130260a083018461100c565b979650505050505050565b600060208201905081810360008301526113268161102a565b9050919050565b600060208201905081810360008301526113468161106a565b9050919050565b60006020820190508181036000830152611366816110aa565b9050919050565b6000602082019050818103600083015261138681611110565b9050919050565b600060208201905081810360008301526113a681611176565b9050919050565b600060208201905081810360008301526113c6816111dc565b9050919050565b600060208201905081810360008301526113e68161121c565b9050919050565b60006020820190506114026000830184611282565b92915050565b600060808201905061141d6000830187611282565b61142a6020830186610ffd565b6114376040830185610ffd565b6114446060830184610ffd565b95945050505050565b60006040820190506114626000830185611282565b61146f602083018461100c565b9392505050565b600060408201905061148b6000830185611282565b611498602083018461101b565b9392505050565b600082825260208201905092915050565b60006114bb826114e1565b9050919050565b60008115159050919050565b60008190506114dc826115c4565b919050565b600073ffffffffffffffffffffffffffffffffffffffff82169050919050565b6000819050919050565b6000611516826114ce565b9050919050565b600061152882611501565b91507fffffffffffffffffffffffffffffffffffffffffffffffffffffffffffffffff82141561155b5761155a611566565b5b600182019050919050565b7f4e487b7100000000000000000000000000000000000000000000000000000000600052601160045260246000fd5b7f4e487b7100000000000000000000000000000000000000000000000000000000600052602160045260246000fd5b600481106115d5576115d4611595565b5b50565b6115e1816114b0565b81146115ec57600080fd5b50565b6115f8816114c2565b811461160357600080fd5b50565b6004811061161357600080fd5b50565b61161f81611501565b811461162a57600080fd5b5056fea2646970667358221220682a1ecf6940b1b7f8e71b6d9f6cee41a9758edebe2e77a44540e556dc15164264736f6c63430008000033",
  "linkReferences": {},
  "deployedLinkReferences": {}
}